{"project/contracts/SplitEngine.sol":{"SplitEngine":{"abi":[{"inputs":[],"stateMutability":"nonpayable","type":"constructor"},{"anonymous":false,"inputs":[{"indexed":false,"internalType":"uint256","name":"total","type":"uint256"},{"indexed":false,"internalType":"uint256","name":"nodePool","type":"uint256"},{"indexed":false,"internalType":"uint256","name":"opsPool","type":"uint256"},{"indexed":false,"internalType":"uint256","name":"treasury","type":"uint256"}],"name":"RevenueSplit","type":"event"},{"inputs":[],"name":"INFRA_RESERVE","outputs":[{"internalType":"uint256","name":"","type":"uint256"}],"stateMutability":"view","type":"function"},{"inputs":[],"name":"NODE_POOL_SHARE","outputs":[{"internalType":"uint256","name":"","type":"uint256"}],"stateMutability":"view","type":"function"},{"inputs":[],"name":"OPS_POOL_SHARE","outputs":[{"internalType":"uint256","name":"","type":"uint256"}],"stateMutability":"view","type":"function"},{"inputs":[],"name":"TREASURY_SHARE","outputs":[{"internalType":"uint256","name":"","type":"uint256"}],"stateMutability":"view","type":"function"},{"inputs":[{"internalType":"uint256","name":"nodePoolAmount","type":"uint256"}],"name":"calculateInfraReserve","outputs":[{"internalType":"uint256","name":"infraAmount","type":"uint256"},{"internalType":"uint256","name":"netNodeAmount","type":"uint256"}],"stateMutability":"pure","type":"function"},{"inputs":[{"internalType":"uint256","name":"amount","type":"uint256"}],"name":"calculateSplit","outputs":[{"internalType":"uint256","name":"nodePool","type":"uint256"},{"internalType":"uint256","name":"opsPool","type":"uint256"},{"internalType":"uint256","name":"treasury","type":"uint256"}],"stateMutability":"pure","type":"function"},{"inputs":[],"name":"owner","outputs":[{"internalType":"address","name":"","type":"address"}],"stateMutability":"view","type":"function"}],"evm":{"bytecode":{"linkReferences":{},"object":"6080604052348015600e575f5ffd5b50335f5f6101000a81548173ffffffffffffffffffffffffffffffffffffffff021916908373ffffffffffffffffffffffffffffffffffffffff1602179055506104b98061005b5f395ff3fe608060405234801561000f575f5ffd5b506004361061007b575f3560e01c80638da5cb5b116100595780638da5cb5b14610100578063c346e6b11461011e578063c71c551a1461013c578063c92685641461015a5761007b565b8063326961741461007f57806339bf54431461009d5780638d623781146100ce575b5f5ffd5b610087610178565b604051610094919061025f565b60405180910390f35b6100b760048036038101906100b291906102a6565b61017e565b6040516100c59291906102d1565b60405180910390f35b6100e860048036038101906100e391906102a6565b6101b0565b6040516100f7939291906102f8565b60405180910390f35b610108610211565b604051610115919061036c565b60405180910390f35b610126610235565b604051610133919061025f565b60405180910390f35b61014461023b565b604051610151919061025f565b60405180910390f35b610162610241565b60405161016f919061025f565b60405180910390f35b6107d081565b5f5f6127106103e88461019191906103b2565b61019b9190610420565b915081836101a99190610450565b9050915091565b5f5f5f612710611388856101c491906103b2565b6101ce9190610420565b9250612710610bb8856101e191906103b2565b6101eb9190610420565b91506127106107d0856101fe91906103b2565b6102089190610420565b90509193909250565b5f5f9054906101000a900473ffffffffffffffffffffffffffffffffffffffff1681565b6103e881565b610bb881565b61138881565b5f819050919050565b61025981610247565b82525050565b5f6020820190506102725f830184610250565b92915050565b5f5ffd5b61028581610247565b811461028f575f5ffd5b50565b5f813590506102a08161027c565b92915050565b5f602082840312156102bb576102ba610278565b5b5f6102c884828501610292565b91505092915050565b5f6040820190506102e45f830185610250565b6102f16020830184610250565b9392505050565b5f60608201905061030b5f830186610250565b6103186020830185610250565b6103256040830184610250565b949350505050565b5f73ffffffffffffffffffffffffffffffffffffffff82169050919050565b5f6103568261032d565b9050919050565b6103668161034c565b82525050565b5f60208201905061037f5f83018461035d565b92915050565b7f4e487b71000000000000000000000000000000000000000000000000000000005f52601160045260245ffd5b5f6103bc82610247565b91506103c783610247565b92508282026103d581610247565b915082820484148315176103ec576103eb610385565b5b5092915050565b7f4e487b71000000000000000000000000000000000000000000000000000000005f52601260045260245ffd5b5f61042a82610247565b915061043583610247565b925082610445576104446103f3565b5b828204905092915050565b5f61045a82610247565b915061046583610247565b925082820390508181111561047d5761047c610385565b5b9291505056fea26469706673582212204a3d003533e937741b7e0cb7ced505da2abb1605e651435ae80c522abb88c60864736f6c634300081c0033","opcodes":"PUSH1 0x80 PUSH1 0x40 MSTORE CALLVALUE DUP1 ISZERO PUSH1 0xE JUMPI PUSH0 PUSH0 REVERT JUMPDEST POP CALLER PUSH0 PUSH0 PUSH2 0x100 EXP DUP2 SLOAD DUP2 PUSH20 0xFFFFFFFFFFFFFFFFFFFFFFFFFFFFFFFFFFFFFFFF MUL NOT AND SWAP1 DUP4 PUSH20 0xFFFFFFFFFFFFFFFFFFFFFFFFFFFFFFFFFFFFFFFF AND MUL OR SWAP1 SSTORE POP PUSH2 0x4B9 DUP1 PUSH2 0x5B PUSH0 CODECOPY PUSH0 RETURN INVALID PUSH1 0x80 PUSH1 0x40 MSTORE CALLVALUE DUP1 ISZERO PUSH2 0xF JUMPI PUSH0 PUSH0 REVERT JUMPDEST POP PUSH1 0x4 CALLDATASIZE LT PUSH2 0x7B JUMPI PUSH0 CALLDATALOAD PUSH1 0xE0 SHR DUP1 PUSH4 0x8DA5CB5B GT PUSH2 0x59 JUMPI DUP1 PUSH4 0x8DA5CB5B EQ PUSH2 0x100 JUMPI DUP1 PUSH4 0xC346E6B1 EQ PUSH2 0x11E JUMPI DUP1 PUSH4 0xC71C551A EQ PUSH2 0x13C JUMPI DUP1 PUSH4 0xC9268564 EQ PUSH2 0x15A JUMPI PUSH2 0x7B JUMP JUMPDEST DUP1 PUSH4 0x32696174 EQ PUSH2 0x7F JUMPI DUP1 PUSH4 0x39BF5443 EQ PUSH2 0x9D JUMPI DUP1 PUSH4 0x8D623781 EQ PUSH2 0xCE JUMPI JUMPDEST PUSH0 PUSH0 REVERT JUMPDEST PUSH2 0x87 PUSH2 0x178 JUMP JUMPDEST PUSH1 0x40 MLOAD PUSH2 0x94 SWAP2 SWAP1 PUSH2 0x25F JUMP JUMPDEST PUSH1 0x40 MLOAD DUP1 SWAP2 SUB SWAP1 RETURN JUMPDEST PUSH2 0xB7 PUSH1 0x4 DUP1 CALLDATASIZE SUB DUP2 ADD SWAP1 PUSH2 0xB2 SWAP2 SWAP1 PUSH2 0x2A6 JUMP JUMPDEST PUSH2 0x17E JUMP JUMPDEST PUSH1 0x40 MLOAD PUSH2 0xC5 SWAP3 SWAP2 SWAP1 PUSH2 0x2D1 JUMP JUMPDEST PUSH1 0x40 MLOAD DUP1 SWAP2 SUB SWAP1 RETURN JUMPDEST PUSH2 0xE8 PUSH1 0x4 DUP1 CALLDATASIZE SUB DUP2 ADD SWAP1 PUSH2 0xE3 SWAP2 SWAP1 PUSH2 0x2A6 JUMP JUMPDEST PUSH2 0x1B0 JUMP JUMPDEST PUSH1 0x40 MLOAD PUSH2 0xF7 SWAP4 SWAP3 SWAP2 SWAP1 PUSH2 0x2F8 JUMP JUMPDEST PUSH1 0x40 MLOAD DUP1 SWAP2 SUB SWAP1 RETURN JUMPDEST PUSH2 0x108 PUSH2 0x211 JUMP JUMPDEST PUSH1 0x40 MLOAD PUSH2 0x115 SWAP2 SWAP1 PUSH2 0x36C JUMP JUMPDEST PUSH1 0x40 MLOAD DUP1 SWAP2 SUB SWAP1 RETURN JUMPDEST PUSH2 0x126 PUSH2 0x235 JUMP JUMPDEST PUSH1 0x40 MLOAD PUSH2 0x133 SWAP2 SWAP1 PUSH2 0x25F JUMP JUMPDEST PUSH1 0x40 MLOAD DUP1 SWAP2 SUB SWAP1 RETURN JUMPDEST PUSH2 0x144 PUSH2 0x23B JUMP JUMPDEST PUSH1 0x40 MLOAD PUSH2 0x151 SWAP2 SWAP1 PUSH2 0x25F JUMP JUMPDEST PUSH1 0x40 MLOAD DUP1 SWAP2 SUB SWAP1 RETURN JUMPDEST PUSH2 0x162 PUSH2 0x241 JUMP JUMPDEST PUSH1 0x40 MLOAD PUSH2 0x16F SWAP2 SWAP1 PUSH2 0x25F JUMP JUMPDEST PUSH1 0x40 MLOAD DUP1 SWAP2 SUB SWAP1 RETURN JUMPDEST PUSH2 0x7D0 DUP2 JUMP JUMPDEST PUSH0 PUSH0 PUSH2 0x2710 PUSH2 0x3E8 DUP5 PUSH2 0x191 SWAP2 SWAP1 PUSH2 0x3B2 JUMP JUMPDEST PUSH2 0x19B SWAP2 SWAP1 PUSH2 0x420 JUMP JUMPDEST SWAP2 POP DUP2 DUP4 PUSH2 0x1A9 SWAP2 SWAP1 PUSH2 0x450 JUMP JUMPDEST SWAP1 POP SWAP2 POP SWAP2 JUMP JUMPDEST PUSH0 PUSH0 PUSH0 PUSH2 0x2710 PUSH2 0x1388 DUP6 PUSH2 0x1C4 SWAP2 SWAP1 PUSH2 0x3B2 JUMP JUMPDEST PUSH2 0x1CE SWAP2 SWAP1 PUSH2 0x420 JUMP JUMPDEST SWAP3 POP PUSH2 0x2710 PUSH2 0xBB8 DUP6 PUSH2 0x1E1 SWAP2 SWAP1 PUSH2 0x3B2 JUMP JUMPDEST PUSH2 0x1EB SWAP2 SWAP1 PUSH2 0x420 JUMP JUMPDEST SWAP2 POP PUSH2 0x2710 PUSH2 0x7D0 DUP6 PUSH2 0x1FE SWAP2 SWAP1 PUSH2 0x3B2 JUMP JUMPDEST PUSH2 0x208 SWAP2 SWAP1 PUSH2 0x420 JUMP JUMPDEST SWAP1 POP SWAP2 SWAP4 SWAP1 SWAP3 POP JUMP JUMPDEST PUSH0 PUSH0 SWAP1 SLOAD SWAP1 PUSH2 0x100 EXP SWAP1 DIV PUSH20 0xFFFFFFFFFFFFFFFFFFFFFFFFFFFFFFFFFFFFFFFF AND DUP2 JUMP JUMPDEST PUSH2 0x3E8 DUP2 JUMP JUMPDEST PUSH2 0xBB8 DUP2 JUMP JUMPDEST PUSH2 0x1388 DUP2 JUMP JUMPDEST PUSH0 DUP2 SWAP1 POP SWAP2 SWAP1 POP JUMP JUMPDEST PUSH2 0x259 DUP2 PUSH2 0x247 JUMP JUMPDEST DUP3 MSTORE POP POP JUMP JUMPDEST PUSH0 PUSH1 0x20 DUP3 ADD SWAP1 POP PUSH2 0x272 PUSH0 DUP4 ADD DUP5 PUSH2 0x250 JUMP JUMPDEST SWAP3 SWAP2 POP POP JUMP JUMPDEST PUSH0 PUSH0 REVERT JUMPDEST PUSH2 0x285 DUP2 PUSH2 0x247 JUMP JUMPDEST DUP2 EQ PUSH2 0x28F JUMPI PUSH0 PUSH0 REVERT JUMPDEST POP JUMP JUMPDEST PUSH0 DUP2 CALLDATALOAD SWAP1 POP PUSH2 0x2A0 DUP2 PUSH2 0x27C JUMP JUMPDEST SWAP3 SWAP2 POP POP JUMP JUMPDEST PUSH0 PUSH1 0x20 DUP3 DUP5 SUB SLT ISZERO PUSH2 0x2BB JUMPI PUSH2 0x2BA PUSH2 0x278 JUMP JUMPDEST JUMPDEST PUSH0 PUSH2 0x2C8 DUP5 DUP3 DUP6 ADD PUSH2 0x292 JUMP JUMPDEST SWAP2 POP POP SWAP3 SWAP2 POP POP JUMP JUMPDEST PUSH0 PUSH1 0x40 DUP3 ADD SWAP1 POP PUSH2 0x2E4 PUSH0 DUP4 ADD DUP6 PUSH2 0x250 JUMP JUMPDEST PUSH2 0x2F1 PUSH1 0x20 DUP4 ADD DUP5 PUSH2 0x250 JUMP JUMPDEST SWAP4 SWAP3 POP POP POP JUMP JUMPDEST PUSH0 PUSH1 0x60 DUP3 ADD SWAP1 POP PUSH2 0x30B PUSH0 DUP4 ADD DUP7 PUSH2 0x250 JUMP JUMPDEST PUSH2 0x318 PUSH1 0x20 DUP4 ADD DUP6 PUSH2 0x250 JUMP JUMPDEST PUSH2 0x325 PUSH1 0x40 DUP4 ADD DUP5 PUSH2 0x250 JUMP JUMPDEST SWAP5 SWAP4 POP POP POP POP JUMP JUMPDEST PUSH0 PUSH20 0xFFFFFFFFFFFFFFFFFFFFFFFFFFFFFFFFFFFFFFFF DUP3 AND SWAP1 POP SWAP2 SWAP1 POP JUMP JUMPDEST PUSH0 PUSH2 0x356 DUP3 PUSH2 0x32D JUMP JUMPDEST SWAP1 POP SWAP2 SWAP1 POP JUMP JUMPDEST PUSH2 0x366 DUP2 PUSH2 0x34C JUMP JUMPDEST DUP3 MSTORE POP POP JUMP JUMPDEST PUSH0 PUSH1 0x20 DUP3 ADD SWAP1 POP PUSH2 0x37F PUSH0 DUP4 ADD DUP5 PUSH2 0x35D JUMP JUMPDEST SWAP3 SWAP2 POP POP JUMP JUMPDEST PUSH32 0x4E487B7100000000000000000000000000000000000000000000000000000000 PUSH0 MSTORE PUSH1 0x11 PUSH1 0x4 MSTORE PUSH1 0x24 PUSH0 REVERT JUMPDEST PUSH0 PUSH2 0x3BC DUP3 PUSH2 0x247 JUMP JUMPDEST SWAP2 POP PUSH2 0x3C7 DUP4 PUSH2 0x247 JUMP JUMPDEST SWAP3 POP DUP3 DUP3 MUL PUSH2 0x3D5 DUP2 PUSH2 0x247 JUMP JUMPDEST SWAP2 POP DUP3 DUP3 DIV DUP5 EQ DUP4 ISZERO OR PUSH2 0x3EC JUMPI PUSH2 0x3EB PUSH2 0x385 JUMP JUMPDEST JUMPDEST POP SWAP3 SWAP2 POP POP JUMP JUMPDEST PUSH32 0x4E487B7100000000000000000000000000000000000000000000000000000000 PUSH0 MSTORE PUSH1 0x12 PUSH1 0x4 MSTORE PUSH1 0x24 PUSH0 REVERT JUMPDEST PUSH0 PUSH2 0x42A DUP3 PUSH2 0x247 JUMP JUMPDEST SWAP2 POP PUSH2 0x435 DUP4 PUSH2 0x247 JUMP JUMPDEST SWAP3 POP DUP3 PUSH2 0x445 JUMPI PUSH2 0x444 PUSH2 0x3F3 JUMP JUMPDEST JUMPDEST DUP3 DUP3 DIV SWAP1 POP SWAP3 SWAP2 POP POP JUMP JUMPDEST PUSH0 PUSH2 0x45A DUP3 PUSH2 0x247 JUMP JUMPDEST SWAP2 POP PUSH2 0x465 DUP4 PUSH2 0x247 JUMP JUMPDEST SWAP3 POP DUP3 DUP3 SUB SWAP1 POP DUP2 DUP2 GT ISZERO PUSH2 0x47D JUMPI PUSH2 0x47C PUSH2 0x385 JUMP JUMPDEST JUMPDEST SWAP3 SWAP2 POP POP JUMP INVALID LOG2 PUSH5 0x6970667358 0x22 SLT KECCAK256 BLOBBASEFEE RETURNDATASIZE STOP CALLDATALOAD CALLER 0xE9 CALLDATACOPY PUSH21 0x1B7E0CB7CED505DA2ABB1605E651435AE80C522ABB DUP9 0xC6 ADDMOD PUSH5 0x736F6C6343 STOP ADDMOD SHR STOP CALLER "},"methodIdentifiers":{"INFRA_RESERVE()":"c346e6b1","NODE_POOL_SHARE()":"c9268564","OPS_POOL_SHARE()":"c71c551a","TREASURY_SHARE()":"32696174","calculateInfraReserve(uint256)":"39bf5443","calculateSplit(uint256)":"8d623781","owner()":"8da5cb5b"}}}}}