{
  "_format": "hh3-artifact-1",
  "contractName": "RevenueVault",
  "sourceName": "contracts/RevenueVault.sol",
  "abi": [
    {
      "inputs": [
        {
          "internalType": "address",
          "name": "_usdt",
          "type": "address"
        }
      ],
      "stateMutability": "nonpayable",
      "type": "constructor"
    },
    {
      "anonymous": false,
      "inputs": [
        {
          "indexed": true,
          "internalType": "address",
          "name": "from",
          "type": "address"
        },
        {
          "indexed": false,
          "internalType": "uint256",
          "name": "amount",
          "type": "uint256"
        }
      ],
      "name": "Deposited",
      "type": "event"
    },
    {
      "anonymous": false,
      "inputs": [
        {
          "indexed": true,
          "internalType": "address",
          "name": "previousOwner",
          "type": "address"
        },
        {
          "indexed": true,
          "internalType": "address",
          "name": "newOwner",
          "type": "address"
        }
      ],
      "name": "OwnershipTransferred",
      "type": "event"
    },
    {
      "anonymous": false,
      "inputs": [
        {
          "indexed": true,
          "internalType": "address",
          "name": "to",
          "type": "address"
        },
        {
          "indexed": false,
          "internalType": "uint256",
          "name": "amount",
          "type": "uint256"
        }
      ],
      "name": "Withdrawn",
      "type": "event"
    },
    {
      "inputs": [
        {
          "internalType": "uint256",
          "name": "amount",
          "type": "uint256"
        }
      ],
      "name": "deposit",
      "outputs": [],
      "stateMutability": "nonpayable",
      "type": "function"
    },
    {
      "inputs": [],
      "name": "owner",
      "outputs": [
        {
          "internalType": "address",
          "name": "",
          "type": "address"
        }
      ],
      "stateMutability": "view",
      "type": "function"
    },
    {
      "inputs": [],
      "name": "totalDeposited",
      "outputs": [
        {
          "internalType": "uint256",
          "name": "",
          "type": "uint256"
        }
      ],
      "stateMutability": "view",
      "type": "function"
    },
    {
      "inputs": [
        {
          "internalType": "address",
          "name": "newOwner",
          "type": "address"
        }
      ],
      "name": "transferOwnership",
      "outputs": [],
      "stateMutability": "nonpayable",
      "type": "function"
    },
    {
      "inputs": [],
      "name": "usdt",
      "outputs": [
        {
          "internalType": "contract IERC20",
          "name": "",
          "type": "address"
        }
      ],
      "stateMutability": "view",
      "type": "function"
    },
    {
      "inputs": [
        {
          "internalType": "address",
          "name": "to",
          "type": "address"
        },
        {
          "internalType": "uint256",
          "name": "amount",
          "type": "uint256"
        }
      ],
      "name": "withdraw",
      "outputs": [],
      "stateMutability": "nonpayable",
      "type": "function"
    }
  ],
  "bytecode": "0x608060405234801561000f575f5ffd5b50604051610d6b380380610d6b83398181016040528101906100319190610114565b335f5f6101000a81548173ffffffffffffffffffffffffffffffffffffffff021916908373ffffffffffffffffffffffffffffffffffffffff1602179055508060015f6101000a81548173ffffffffffffffffffffffffffffffffffffffff021916908373ffffffffffffffffffffffffffffffffffffffff1602179055505061013f565b5f5ffd5b5f73ffffffffffffffffffffffffffffffffffffffff82169050919050565b5f6100e3826100ba565b9050919050565b6100f3816100d9565b81146100fd575f5ffd5b50565b5f8151905061010e816100ea565b92915050565b5f60208284031215610129576101286100b6565b5b5f61013684828501610100565b91505092915050565b610c1f8061014c5f395ff3fe608060405234801561000f575f5ffd5b5060043610610060575f3560e01c80632f48ab7d146100645780638da5cb5b14610082578063b6b55f25146100a0578063f2fde38b146100bc578063f3fef3a3146100d8578063ff50abdc146100f4575b5f5ffd5b61006c610112565b604051610079919061076f565b60405180910390f35b61008a610137565b60405161009791906107a8565b60405180910390f35b6100ba60048036038101906100b591906107f8565b61015b565b005b6100d660048036038101906100d1919061084d565b6102a1565b005b6100f260048036038101906100ed9190610878565b610459565b005b6100fc6106ef565b60405161010991906108c5565b60405180910390f35b60015f9054906101000a900473ffffffffffffffffffffffffffffffffffffffff1681565b5f5f9054906101000a900473ffffffffffffffffffffffffffffffffffffffff1681565b60015f9054906101000a900473ffffffffffffffffffffffffffffffffffffffff1673ffffffffffffffffffffffffffffffffffffffff166323b872dd3330846040518463ffffffff1660e01b81526004016101b9939291906108de565b6020604051808303815f875af11580156101d5573d5f5f3e3d5ffd5b505050506040513d601f19601f820116820180604052508101906101f99190610948565b610238576040517f08c379a000000000000000000000000000000000000000000000000000000000815260040161022f906109cd565b60405180910390fd5b8060025f8282546102499190610a18565b925050819055503373ffffffffffffffffffffffffffffffffffffffff167f2da466a7b24304f47e87fa2e1e5a81b9831ce54fec19055ce277ca2f39ba42c48260405161029691906108c5565b60405180910390a250565b5f5f9054906101000a900473ffffffffffffffffffffffffffffffffffffffff1673ffffffffffffffffffffffffffffffffffffffff163373ffffffffffffffffffffffffffffffffffffffff161461032f576040517f08c379a000000000000000000000000000000000000000000000000000000000815260040161032690610a95565b60405180910390fd5b5f73ffffffffffffffffffffffffffffffffffffffff168173ffffffffffffffffffffffffffffffffffffffff160361039d576040517f08c379a000000000000000000000000000000000000000000000000000000000815260040161039490610afd565b60405180910390fd5b8073ffffffffffffffffffffffffffffffffffffffff165f5f9054906101000a900473ffffffffffffffffffffffffffffffffffffffff1673ffffffffffffffffffffffffffffffffffffffff167f8be0079c531659141344cd1fd0a4f28419497f9722a3daafe3b4186f6b6457e060405160405180910390a3805f5f6101000a81548173ffffffffffffffffffffffffffffffffffffffff021916908373ffffffffffffffffffffffffffffffffffffffff16021790555050565b5f5f9054906101000a900473ffffffffffffffffffffffffffffffffffffffff1673ffffffffffffffffffffffffffffffffffffffff163373ffffffffffffffffffffffffffffffffffffffff16146104e7576040517f08c379a00000000000000000000000000000000000000000000000000000000081526004016104de90610a95565b60405180910390fd5b8060015f9054906101000a900473ffffffffffffffffffffffffffffffffffffffff1673ffffffffffffffffffffffffffffffffffffffff166370a08231306040518263ffffffff1660e01b815260040161054291906107a8565b602060405180830381865afa15801561055d573d5f5f3e3d5ffd5b505050506040513d601f19601f820116820180604052508101906105819190610b2f565b10156105c2576040517f08c379a00000000000000000000000000000000000000000000000000000000081526004016105b990610ba4565b60405180910390fd5b60015f9054906101000a900473ffffffffffffffffffffffffffffffffffffffff1673ffffffffffffffffffffffffffffffffffffffff1663a9059cbb83836040518363ffffffff1660e01b815260040161061e929190610bc2565b6020604051808303815f875af115801561063a573d5f5f3e3d5ffd5b505050506040513d601f19601f8201168201806040525081019061065e9190610948565b61069d576040517f08c379a0000000000000000000000000000000000000000000000000000000008152600401610694906109cd565b60405180910390fd5b8173ffffffffffffffffffffffffffffffffffffffff167f7084f5476618d8e60b11ef0d7d3f06914655adb8793e28ff7f018d4c76d505d5826040516106e391906108c5565b60405180910390a25050565b60025481565b5f73ffffffffffffffffffffffffffffffffffffffff82169050919050565b5f819050919050565b5f61073761073261072d846106f5565b610714565b6106f5565b9050919050565b5f6107488261071d565b9050919050565b5f6107598261073e565b9050919050565b6107698161074f565b82525050565b5f6020820190506107825f830184610760565b92915050565b5f610792826106f5565b9050919050565b6107a281610788565b82525050565b5f6020820190506107bb5f830184610799565b92915050565b5f5ffd5b5f819050919050565b6107d7816107c5565b81146107e1575f5ffd5b50565b5f813590506107f2816107ce565b92915050565b5f6020828403121561080d5761080c6107c1565b5b5f61081a848285016107e4565b91505092915050565b61082c81610788565b8114610836575f5ffd5b50565b5f8135905061084781610823565b92915050565b5f60208284031215610862576108616107c1565b5b5f61086f84828501610839565b91505092915050565b5f5f6040838503121561088e5761088d6107c1565b5b5f61089b85828601610839565b92505060206108ac858286016107e4565b9150509250929050565b6108bf816107c5565b82525050565b5f6020820190506108d85f8301846108b6565b92915050565b5f6060820190506108f15f830186610799565b6108fe6020830185610799565b61090b60408301846108b6565b949350505050565b5f8115159050919050565b61092781610913565b8114610931575f5ffd5b50565b5f815190506109428161091e565b92915050565b5f6020828403121561095d5761095c6107c1565b5b5f61096a84828501610934565b91505092915050565b5f82825260208201905092915050565b7f5472616e73666572206661696c656400000000000000000000000000000000005f82015250565b5f6109b7600f83610973565b91506109c282610983565b602082019050919050565b5f6020820190508181035f8301526109e4816109ab565b9050919050565b7f4e487b71000000000000000000000000000000000000000000000000000000005f52601160045260245ffd5b5f610a22826107c5565b9150610a2d836107c5565b9250828201905080821115610a4557610a446109eb565b5b92915050565b7f4f6e6c79206f776e6572000000000000000000000000000000000000000000005f82015250565b5f610a7f600a83610973565b9150610a8a82610a4b565b602082019050919050565b5f6020820190508181035f830152610aac81610a73565b9050919050565b7f4e6577206f776e6572206973207a65726f2061646472657373000000000000005f82015250565b5f610ae7601983610973565b9150610af282610ab3565b602082019050919050565b5f6020820190508181035f830152610b1481610adb565b9050919050565b5f81519050610b29816107ce565b92915050565b5f60208284031215610b4457610b436107c1565b5b5f610b5184828501610b1b565b91505092915050565b7f496e73756666696369656e742066756e647300000000000000000000000000005f82015250565b5f610b8e601283610973565b9150610b9982610b5a565b602082019050919050565b5f6020820190508181035f830152610bbb81610b82565b9050919050565b5f604082019050610bd55f830185610799565b610be260208301846108b6565b939250505056fea26469706673582212205a8bc3d811337bf4f3597497e7dcc71c8168ded167a3ec8b538532de8fd7f90864736f6c634300081c0033",
  "linkReferences": {},
  "deployedLinkReferences": {},
  "immutableReferences": {},
  "inputSourceName": "project/contracts/RevenueVault.sol",
  "buildInfoId": "solc-0_8_28-9fe7c3168570ee02b2be31a83d1814c99f3acc21"
}