{
  "_format": "hh3-artifact-1",
  "contractName": "RevenueDistributor",
  "sourceName": "contracts/RevenueDistributor.sol",
  "abi": [
    {
      "inputs": [
        {
          "internalType": "address",
          "name": "_registry",
          "type": "address"
        }
      ],
      "stateMutability": "nonpayable",
      "type": "constructor"
    },
    {
      "anonymous": false,
      "inputs": [
        {
          "indexed": true,
          "internalType": "uint256",
          "name": "nodeId",
          "type": "uint256"
        },
        {
          "indexed": true,
          "internalType": "address",
          "name": "wallet",
          "type": "address"
        },
        {
          "indexed": false,
          "internalType": "uint256",
          "name": "amount",
          "type": "uint256"
        }
      ],
      "name": "Distributed",
      "type": "event"
    },
    {
      "inputs": [
        {
          "internalType": "uint256",
          "name": "nodeId",
          "type": "uint256"
        }
      ],
      "name": "distribute",
      "outputs": [],
      "stateMutability": "payable",
      "type": "function"
    },
    {
      "inputs": [],
      "name": "registry",
      "outputs": [
        {
          "internalType": "contract INodeRegistry",
          "name": "",
          "type": "address"
        }
      ],
      "stateMutability": "view",
      "type": "function"
    }
  ],
  "bytecode": "0x608060405234801561000f575f5ffd5b5060405161090438038061090483398181016040528101906100319190610142565b5f73ffffffffffffffffffffffffffffffffffffffff168173ffffffffffffffffffffffffffffffffffffffff160361009f576040517f08c379a0000000000000000000000000000000000000000000000000000000008152600401610096906101c7565b60405180910390fd5b805f5f6101000a81548173ffffffffffffffffffffffffffffffffffffffff021916908373ffffffffffffffffffffffffffffffffffffffff160217905550506101e5565b5f5ffd5b5f73ffffffffffffffffffffffffffffffffffffffff82169050919050565b5f610111826100e8565b9050919050565b61012181610107565b811461012b575f5ffd5b50565b5f8151905061013c81610118565b92915050565b5f60208284031215610157576101566100e4565b5b5f6101648482850161012e565b91505092915050565b5f82825260208201905092915050565b7f496e76616c6964207265676973747279000000000000000000000000000000005f82015250565b5f6101b160108361016d565b91506101bc8261017d565b602082019050919050565b5f6020820190508181035f8301526101de816101a5565b9050919050565b610712806101f25f395ff3fe608060405260043610610028575f3560e01c80637b1039991461002c57806391c05b0b14610056575b5f5ffd5b348015610037575f5ffd5b50610040610072565b60405161004d919061039a565b60405180910390f35b610070600480360381019061006b91906103ea565b610096565b005b5f5f9054906101000a900473ffffffffffffffffffffffffffffffffffffffff1681565b5f34116100d8576040517f08c379a00000000000000000000000000000000000000000000000000000000081526004016100cf9061046f565b60405180910390fd5b5f5f5f5f9054906101000a900473ffffffffffffffffffffffffffffffffffffffff1673ffffffffffffffffffffffffffffffffffffffff16634f0f4aa9846040518263ffffffff1660e01b8152600401610133919061049c565b6040805180830381865afa15801561014d573d5f5f3e3d5ffd5b505050506040513d601f19601f820116820180604052508101906101719190610525565b91509150806101b5576040517f08c379a00000000000000000000000000000000000000000000000000000000081526004016101ac906105ad565b60405180910390fd5b5f73ffffffffffffffffffffffffffffffffffffffff168273ffffffffffffffffffffffffffffffffffffffff1603610223576040517f08c379a000000000000000000000000000000000000000000000000000000000815260040161021a90610615565b60405180910390fd5b5f8273ffffffffffffffffffffffffffffffffffffffff163460405161024890610660565b5f6040518083038185875af1925050503d805f8114610282576040519150601f19603f3d011682016040523d82523d5f602084013e610287565b606091505b50509050806102cb576040517f08c379a00000000000000000000000000000000000000000000000000000000081526004016102c2906106be565b60405180910390fd5b8273ffffffffffffffffffffffffffffffffffffffff16847fa7932e9c92f31e1ed56b29d00bbe669a97484dc24de28dd9c8c0429df7f3584734604051610312919061049c565b60405180910390a350505050565b5f73ffffffffffffffffffffffffffffffffffffffff82169050919050565b5f819050919050565b5f61036261035d61035884610320565b61033f565b610320565b9050919050565b5f61037382610348565b9050919050565b5f61038482610369565b9050919050565b6103948161037a565b82525050565b5f6020820190506103ad5f83018461038b565b92915050565b5f5ffd5b5f819050919050565b6103c9816103b7565b81146103d3575f5ffd5b50565b5f813590506103e4816103c0565b92915050565b5f602082840312156103ff576103fe6103b3565b5b5f61040c848285016103d6565b91505092915050565b5f82825260208201905092915050565b7f4e6f2076616c75652073656e74000000000000000000000000000000000000005f82015250565b5f610459600d83610415565b915061046482610425565b602082019050919050565b5f6020820190508181035f8301526104868161044d565b9050919050565b610496816103b7565b82525050565b5f6020820190506104af5f83018461048d565b92915050565b5f6104bf82610320565b9050919050565b6104cf816104b5565b81146104d9575f5ffd5b50565b5f815190506104ea816104c6565b92915050565b5f8115159050919050565b610504816104f0565b811461050e575f5ffd5b50565b5f8151905061051f816104fb565b92915050565b5f5f6040838503121561053b5761053a6103b3565b5b5f610548858286016104dc565b925050602061055985828601610511565b9150509250929050565b7f4e6f6465206e6f742061637469766500000000000000000000000000000000005f82015250565b5f610597600f83610415565b91506105a282610563565b602082019050919050565b5f6020820190508181035f8301526105c48161058b565b9050919050565b7f496e76616c6964206e6f64652077616c6c6574000000000000000000000000005f82015250565b5f6105ff601383610415565b915061060a826105cb565b602082019050919050565b5f6020820190508181035f83015261062c816105f3565b9050919050565b5f81905092915050565b50565b5f61064b5f83610633565b91506106568261063d565b5f82019050919050565b5f61066a82610640565b9150819050919050565b7f4661696c656420746f2073656e642045746865720000000000000000000000005f82015250565b5f6106a8601483610415565b91506106b382610674565b602082019050919050565b5f6020820190508181035f8301526106d58161069c565b905091905056fea2646970667358221220e8e32170fbc93774789b354b91b4731d40f72fe822a132f4389293e2aaef56b864736f6c634300081c0033",
  "linkReferences": {},
  "deployedLinkReferences": {},
  "immutableReferences": {},
  "inputSourceName": "project/contracts/RevenueDistributor.sol",
  "buildInfoId": "solc-0_8_28-58ed282e116c3ebcc4d1980d11aba79a1d82be1a"
}