{
  "_format": "hh3-artifact-1",
  "contractName": "ClaimsContract",
  "sourceName": "contracts/ClaimsContract.sol",
  "abi": [
    {
      "inputs": [
        {
          "internalType": "address",
          "name": "_vault",
          "type": "address"
        }
      ],
      "stateMutability": "nonpayable",
      "type": "constructor"
    },
    {
      "anonymous": false,
      "inputs": [
        {
          "indexed": true,
          "internalType": "bytes32",
          "name": "claimId",
          "type": "bytes32"
        },
        {
          "indexed": true,
          "internalType": "address",
          "name": "user",
          "type": "address"
        },
        {
          "indexed": false,
          "internalType": "uint256",
          "name": "amount",
          "type": "uint256"
        },
        {
          "indexed": false,
          "internalType": "uint256",
          "name": "expiry",
          "type": "uint256"
        }
      ],
      "name": "ClaimCreated",
      "type": "event"
    },
    {
      "anonymous": false,
      "inputs": [
        {
          "indexed": true,
          "internalType": "bytes32",
          "name": "claimId",
          "type": "bytes32"
        },
        {
          "indexed": true,
          "internalType": "address",
          "name": "user",
          "type": "address"
        },
        {
          "indexed": false,
          "internalType": "uint256",
          "name": "amount",
          "type": "uint256"
        }
      ],
      "name": "Claimed",
      "type": "event"
    },
    {
      "anonymous": false,
      "inputs": [
        {
          "indexed": true,
          "internalType": "address",
          "name": "user",
          "type": "address"
        },
        {
          "indexed": false,
          "internalType": "uint256",
          "name": "amount",
          "type": "uint256"
        }
      ],
      "name": "Withdrawn",
      "type": "event"
    },
    {
      "inputs": [
        {
          "internalType": "bytes32",
          "name": "",
          "type": "bytes32"
        }
      ],
      "name": "claimOwner",
      "outputs": [
        {
          "internalType": "address",
          "name": "",
          "type": "address"
        }
      ],
      "stateMutability": "view",
      "type": "function"
    },
    {
      "inputs": [
        {
          "internalType": "bytes32",
          "name": "claimId",
          "type": "bytes32"
        }
      ],
      "name": "claimReward",
      "outputs": [],
      "stateMutability": "nonpayable",
      "type": "function"
    },
    {
      "inputs": [
        {
          "internalType": "bytes32",
          "name": "",
          "type": "bytes32"
        }
      ],
      "name": "claims",
      "outputs": [
        {
          "internalType": "uint256",
          "name": "amount",
          "type": "uint256"
        },
        {
          "internalType": "uint256",
          "name": "expiryTimestamp",
          "type": "uint256"
        },
        {
          "internalType": "bool",
          "name": "claimed",
          "type": "bool"
        }
      ],
      "stateMutability": "view",
      "type": "function"
    },
    {
      "inputs": [
        {
          "internalType": "address",
          "name": "user",
          "type": "address"
        },
        {
          "internalType": "uint256",
          "name": "amount",
          "type": "uint256"
        }
      ],
      "name": "createClaim",
      "outputs": [
        {
          "internalType": "bytes32",
          "name": "",
          "type": "bytes32"
        }
      ],
      "stateMutability": "nonpayable",
      "type": "function"
    },
    {
      "inputs": [],
      "name": "owner",
      "outputs": [
        {
          "internalType": "address",
          "name": "",
          "type": "address"
        }
      ],
      "stateMutability": "view",
      "type": "function"
    },
    {
      "inputs": [
        {
          "internalType": "address",
          "name": "",
          "type": "address"
        }
      ],
      "name": "userBalances",
      "outputs": [
        {
          "internalType": "uint256",
          "name": "",
          "type": "uint256"
        }
      ],
      "stateMutability": "view",
      "type": "function"
    },
    {
      "inputs": [],
      "name": "vault",
      "outputs": [
        {
          "internalType": "contract IRevenueVault",
          "name": "",
          "type": "address"
        }
      ],
      "stateMutability": "view",
      "type": "function"
    },
    {
      "inputs": [
        {
          "internalType": "uint256",
          "name": "amount",
          "type": "uint256"
        }
      ],
      "name": "withdrawFunds",
      "outputs": [],
      "stateMutability": "nonpayable",
      "type": "function"
    }
  ],
  "bytecode": "0x608060405234801561000f575f5ffd5b5060405161100838038061100883398181016040528101906100319190610114565b335f5f6101000a81548173ffffffffffffffffffffffffffffffffffffffff021916908373ffffffffffffffffffffffffffffffffffffffff1602179055508060015f6101000a81548173ffffffffffffffffffffffffffffffffffffffff021916908373ffffffffffffffffffffffffffffffffffffffff1602179055505061013f565b5f5ffd5b5f73ffffffffffffffffffffffffffffffffffffffff82169050919050565b5f6100e3826100ba565b9050919050565b6100f3816100d9565b81146100fd575f5ffd5b50565b5f8151905061010e816100ea565b92915050565b5f60208284031215610129576101286100b6565b5b5f61013684828501610100565b91505092915050565b610ebc8061014c5f395ff3fe608060405234801561000f575f5ffd5b5060043610610086575f3560e01c8063e85b26c011610059578063e85b26c014610124578063eff0f59214610154578063f541402314610186578063fbfa77cf146101a257610086565b8063155dd5ee1461008a57806326224c64146100a6578063523ef631146100d65780638da5cb5b14610106575b5f5ffd5b6100a4600480360381019061009f9190610854565b6101c0565b005b6100c060048036038101906100bb91906108d9565b61036d565b6040516100cd9190610913565b60405180910390f35b6100f060048036038101906100eb919061095f565b610382565b6040516100fd9190610999565b60405180910390f35b61010e6103b2565b60405161011b9190610999565b60405180910390f35b61013e600480360381019061013991906109b2565b6103d6565b60405161014b91906109ff565b60405180910390f35b61016e6004803603810190610169919061095f565b6105b4565b60405161017d93929190610a32565b60405180910390f35b6101a0600480360381019061019b919061095f565b6105e6565b005b6101aa6107f8565b6040516101b79190610ac2565b60405180910390f35b8060045f3373ffffffffffffffffffffffffffffffffffffffff1673ffffffffffffffffffffffffffffffffffffffff1681526020019081526020015f20541015610240576040517f08c379a000000000000000000000000000000000000000000000000000000000815260040161023790610b35565b60405180910390fd5b8060045f3373ffffffffffffffffffffffffffffffffffffffff1673ffffffffffffffffffffffffffffffffffffffff1681526020019081526020015f205f82825461028c9190610b80565b9250508190555060015f9054906101000a900473ffffffffffffffffffffffffffffffffffffffff1673ffffffffffffffffffffffffffffffffffffffff1663f3fef3a333836040518363ffffffff1660e01b81526004016102ef929190610bb3565b5f604051808303815f87803b158015610306575f5ffd5b505af1158015610318573d5f5f3e3d5ffd5b505050503373ffffffffffffffffffffffffffffffffffffffff167f7084f5476618d8e60b11ef0d7d3f06914655adb8793e28ff7f018d4c76d505d5826040516103629190610913565b60405180910390a250565b6004602052805f5260405f205f915090505481565b6003602052805f5260405f205f915054906101000a900473ffffffffffffffffffffffffffffffffffffffff1681565b5f5f9054906101000a900473ffffffffffffffffffffffffffffffffffffffff1681565b5f5f5f9054906101000a900473ffffffffffffffffffffffffffffffffffffffff1673ffffffffffffffffffffffffffffffffffffffff163373ffffffffffffffffffffffffffffffffffffffff1614610465576040517f08c379a000000000000000000000000000000000000000000000000000000000815260040161045c90610c24565b60405180910390fd5b5f8383424460405160200161047d9493929190610ca7565b6040516020818303038152906040528051906020012090505f623f4800426104a59190610cf4565b905060405180606001604052808581526020018281526020015f151581525060025f8481526020019081526020015f205f820151815f0155602082015181600101556040820151816002015f6101000a81548160ff0219169083151502179055509050508460035f8481526020019081526020015f205f6101000a81548173ffffffffffffffffffffffffffffffffffffffff021916908373ffffffffffffffffffffffffffffffffffffffff1602179055508473ffffffffffffffffffffffffffffffffffffffff16827f5b0da7e502b0cb92454b51a104738da8170a4f45d26c50f8e13908bcc4226fd686846040516105a1929190610d27565b60405180910390a3819250505092915050565b6002602052805f5260405f205f91509050805f015490806001015490806002015f9054906101000a900460ff16905083565b3373ffffffffffffffffffffffffffffffffffffffff1660035f8381526020019081526020015f205f9054906101000a900473ffffffffffffffffffffffffffffffffffffffff1673ffffffffffffffffffffffffffffffffffffffff1614610684576040517f08c379a000000000000000000000000000000000000000000000000000000000815260040161067b90610d98565b60405180910390fd5b5f60025f8381526020019081526020015f209050806002015f9054906101000a900460ff16156106e9576040517f08c379a00000000000000000000000000000000000000000000000000000000081526004016106e090610e00565b60405180910390fd5b8060010154421115610730576040517f08c379a000000000000000000000000000000000000000000000000000000000815260040161072790610e68565b60405180910390fd5b6001816002015f6101000a81548160ff021916908315150217905550805f015460045f3373ffffffffffffffffffffffffffffffffffffffff1673ffffffffffffffffffffffffffffffffffffffff1681526020019081526020015f205f82825461079b9190610cf4565b925050819055503373ffffffffffffffffffffffffffffffffffffffff16827f0508a8b4117d9a7b3d8f5895f6413e61b4f9a2df35afbfb41e78d0ecfff1843f835f01546040516107ec9190610913565b60405180910390a35050565b60015f9054906101000a900473ffffffffffffffffffffffffffffffffffffffff1681565b5f5ffd5b5f819050919050565b61083381610821565b811461083d575f5ffd5b50565b5f8135905061084e8161082a565b92915050565b5f602082840312156108695761086861081d565b5b5f61087684828501610840565b91505092915050565b5f73ffffffffffffffffffffffffffffffffffffffff82169050919050565b5f6108a88261087f565b9050919050565b6108b88161089e565b81146108c2575f5ffd5b50565b5f813590506108d3816108af565b92915050565b5f602082840312156108ee576108ed61081d565b5b5f6108fb848285016108c5565b91505092915050565b61090d81610821565b82525050565b5f6020820190506109265f830184610904565b92915050565b5f819050919050565b61093e8161092c565b8114610948575f5ffd5b50565b5f8135905061095981610935565b92915050565b5f602082840312156109745761097361081d565b5b5f6109818482850161094b565b91505092915050565b6109938161089e565b82525050565b5f6020820190506109ac5f83018461098a565b92915050565b5f5f604083850312156109c8576109c761081d565b5b5f6109d5858286016108c5565b92505060206109e685828601610840565b9150509250929050565b6109f98161092c565b82525050565b5f602082019050610a125f8301846109f0565b92915050565b5f8115159050919050565b610a2c81610a18565b82525050565b5f606082019050610a455f830186610904565b610a526020830185610904565b610a5f6040830184610a23565b949350505050565b5f819050919050565b5f610a8a610a85610a808461087f565b610a67565b61087f565b9050919050565b5f610a9b82610a70565b9050919050565b5f610aac82610a91565b9050919050565b610abc81610aa2565b82525050565b5f602082019050610ad55f830184610ab3565b92915050565b5f82825260208201905092915050565b7f496e73756666696369656e742062616c616e63650000000000000000000000005f82015250565b5f610b1f601483610adb565b9150610b2a82610aeb565b602082019050919050565b5f6020820190508181035f830152610b4c81610b13565b9050919050565b7f4e487b71000000000000000000000000000000000000000000000000000000005f52601160045260245ffd5b5f610b8a82610821565b9150610b9583610821565b9250828203905081811115610bad57610bac610b53565b5b92915050565b5f604082019050610bc65f83018561098a565b610bd36020830184610904565b9392505050565b7f4f6e6c79206f776e6572000000000000000000000000000000000000000000005f82015250565b5f610c0e600a83610adb565b9150610c1982610bda565b602082019050919050565b5f6020820190508181035f830152610c3b81610c02565b9050919050565b5f8160601b9050919050565b5f610c5882610c42565b9050919050565b5f610c6982610c4e565b9050919050565b610c81610c7c8261089e565b610c5f565b82525050565b5f819050919050565b610ca1610c9c82610821565b610c87565b82525050565b5f610cb28287610c70565b601482019150610cc28286610c90565b602082019150610cd28285610c90565b602082019150610ce28284610c90565b60208201915081905095945050505050565b5f610cfe82610821565b9150610d0983610821565b9250828201905080821115610d2157610d20610b53565b5b92915050565b5f604082019050610d3a5f830185610904565b610d476020830184610904565b9392505050565b7f4e6f7420636c61696d206f776e657200000000000000000000000000000000005f82015250565b5f610d82600f83610adb565b9150610d8d82610d4e565b602082019050919050565b5f6020820190508181035f830152610daf81610d76565b9050919050565b7f416c726561647920636c61696d656400000000000000000000000000000000005f82015250565b5f610dea600f83610adb565b9150610df582610db6565b602082019050919050565b5f6020820190508181035f830152610e1781610dde565b9050919050565b7f436c61696d2065787069726564000000000000000000000000000000000000005f82015250565b5f610e52600d83610adb565b9150610e5d82610e1e565b602082019050919050565b5f6020820190508181035f830152610e7f81610e46565b905091905056fea26469706673582212201b3a0b07b7dd765f677864d7739438af8b9c5d2ddc8a018f3314c9673b03d5fd64736f6c634300081c0033",
  "linkReferences": {},
  "deployedLinkReferences": {},
  "immutableReferences": {},
  "inputSourceName": "project/contracts/ClaimsContract.sol",
  "buildInfoId": "solc-0_8_28-05c4aad4a3916be94b485cdfa4403d495aadb17d"
}